{
  "contractName": "Lottery",
  "abi": [
    {
      "constant": true,
      "inputs": [],
      "name": "allRefunded",
      "outputs": [
        {
          "name": "",
          "type": "bool"
        }
      ],
      "payable": false,
      "type": "function"
    },
    {
      "constant": true,
      "inputs": [],
      "name": "STATE_ABORT",
      "outputs": [
        {
          "name": "",
          "type": "uint8"
        }
      ],
      "payable": false,
      "type": "function"
    },
    {
      "constant": true,
      "inputs": [],
      "name": "getMatch",
      "outputs": [
        {
          "name": "",
          "type": "address"
        }
      ],
      "payable": false,
      "type": "function"
    },
    {
      "constant": true,
      "inputs": [],
      "name": "lotteryWinner",
      "outputs": [
        {
          "name": "",
          "type": "address"
        }
      ],
      "payable": false,
      "type": "function"
    },
    {
      "constant": false,
      "inputs": [],
      "name": "refund",
      "outputs": [],
      "payable": false,
      "type": "function"
    },
    {
      "constant": true,
      "inputs": [],
      "name": "STATE_INIT",
      "outputs": [
        {
          "name": "",
          "type": "uint8"
        }
      ],
      "payable": false,
      "type": "function"
    },
    {
      "constant": true,
      "inputs": [],
      "name": "level",
      "outputs": [
        {
          "name": "",
          "type": "uint256"
        }
      ],
      "payable": false,
      "type": "function"
    },
    {
      "constant": true,
      "inputs": [],
      "name": "STATE_START",
      "outputs": [
        {
          "name": "",
          "type": "uint8"
        }
      ],
      "payable": false,
      "type": "function"
    },
    {
      "constant": true,
      "inputs": [],
      "name": "L",
      "outputs": [
        {
          "name": "",
          "type": "uint256"
        }
      ],
      "payable": false,
      "type": "function"
    },
    {
      "constant": false,
      "inputs": [
        {
          "name": "secrets",
          "type": "bytes32[]"
        }
      ],
      "name": "register",
      "outputs": [],
      "payable": true,
      "type": "function"
    },
    {
      "constant": true,
      "inputs": [],
      "name": "state",
      "outputs": [
        {
          "name": "",
          "type": "uint8"
        }
      ],
      "payable": false,
      "type": "function"
    },
    {
      "constant": true,
      "inputs": [],
      "name": "N",
      "outputs": [
        {
          "name": "",
          "type": "uint256"
        }
      ],
      "payable": false,
      "type": "function"
    },
    {
      "constant": true,
      "inputs": [],
      "name": "DEPOSIT",
      "outputs": [
        {
          "name": "",
          "type": "uint256"
        }
      ],
      "payable": false,
      "type": "function"
    },
    {
      "constant": false,
      "inputs": [],
      "name": "timeoutRegistration",
      "outputs": [],
      "payable": false,
      "type": "function"
    },
    {
      "constant": false,
      "inputs": [],
      "name": "goForward",
      "outputs": [],
      "payable": false,
      "type": "function"
    },
    {
      "inputs": [
        {
          "name": "_L",
          "type": "uint8"
        },
        {
          "name": "_deposit",
          "type": "uint256"
        }
      ],
      "type": "constructor"
    },
    {
      "anonymous": false,
      "inputs": [],
      "name": "RegistrationDoneEvent",
      "type": "event"
    },
    {
      "anonymous": false,
      "inputs": [],
      "name": "RegistrationAbortEvent",
      "type": "event"
    },
    {
      "anonymous": false,
      "inputs": [
        {
          "indexed": false,
          "name": "_addr",
          "type": "address"
        },
        {
          "indexed": false,
          "name": "_userid",
          "type": "uint256"
        },
        {
          "indexed": false,
          "name": "_secrets",
          "type": "bytes32[]"
        }
      ],
      "name": "RegistrationEvent",
      "type": "event"
    },
    {
      "anonymous": false,
      "inputs": [
        {
          "indexed": false,
          "name": "_level",
          "type": "uint256"
        },
        {
          "indexed": false,
          "name": "_matchId",
          "type": "uint256"
        },
        {
          "indexed": false,
          "name": "_userid",
          "type": "uint256"
        }
      ],
      "name": "MatchWinnerEvent",
      "type": "event"
    },
    {
      "anonymous": false,
      "inputs": [],
      "name": "AllRefundedEvent",
      "type": "event"
    },
    {
      "anonymous": false,
      "inputs": [],
      "name": "LevelIncreasedEvent",
      "type": "event"
    },
    {
      "anonymous": false,
      "inputs": [
        {
          "indexed": false,
          "name": "_userid",
          "type": "uint256"
        }
      ],
      "name": "LotteryWinnerEvent",
      "type": "event"
    }
  ],
  "bytecode": "0x606060405261012c60036000505561012c60046000505561012c6005600050556000600860006101000a81548160ff02191690837f01000000000000000000000000000000000000000000000000000000000000009081020402179055506000600860016101000a81548160ff02191690837f01000000000000000000000000000000000000000000000000000000000000009081020402179055506001600860026101000a81548160ff02191690837f01000000000000000000000000000000000000000000000000000000000000009081020402179055506002600860036101000a81548160ff02191690837f0100000000000000000000000000000000000000000000000000000000000000908102040217905550600060096000505542600a60005055604051604080613a51833981016040528080519060200190919080519060200190919050505b8160020a60ff166000600050819055508160ff16600160005081905550806002600050819055506000600960005081905550600060005054600d60005081905550600260006000505481156100025704600c600050819055505b505061389b806101b66000396000f3606060405236156100d7576000357c010000000000000000000000000000000000000000000000000000000090048063102c920a146100dc578063226a8cb0146101065780633d8a03af1461012e5780633e351a451461016c578063590e1ae3146101aa5780635d887be1146101be5780636fd5ae15146101e657806372d555ca1461020e5780639f13f76d14610236578063b564561e1461025e578063c19d93fb146102b1578063c9e525df146102d9578063d81c8e5214610301578063d879380d14610329578063df591e821461033d576100d7565b610002565b34610002576100ee6004805050610351565b60405180821515815260200191505060405180910390f35b346100025761011860048050506103ef565b6040518082815260200191505060405180910390f35b34610002576101406004805050610402565b604051808273ffffffffffffffffffffffffffffffffffffffff16815260200191505060405180910390f35b346100025761017e600480505061043b565b604051808273ffffffffffffffffffffffffffffffffffffffff16815260200191505060405180910390f35b34610002576101bc600480505061048b565b005b34610002576101d0600480505061072a565b6040518082815260200191505060405180910390f35b34610002576101f8600480505061073d565b6040518082815260200191505060405180910390f35b34610002576102206004805050610746565b6040518082815260200191505060405180910390f35b34610002576102486004805050610759565b6040518082815260200191505060405180910390f35b6102af60048080359060200190820180359060200191919080806020026020016040519081016040528093929190818152602001838360200280828437820191505050505050909091905050610762565b005b34610002576102c36004805050610fb3565b6040518082815260200191505060405180910390f35b34610002576102eb6004805050610fc6565b6040518082815260200191505060405180910390f35b34610002576103136004805050610fcf565b6040518082815260200191505060405180910390f35b346100025761033b6004805050610fd8565b005b346100025761034f6004805050611089565b005b600060006000600280600860009054906101000a900460ff1614151561037657610002565b60019250600091505b600d60005054600060005054038210156103e0578280156103ce5750600660005082815481101561000257906000526020600020906003020160005b5060000160149054906101000a900460ff165b925082505b818060010192505061037f565b8293506103e8565b5b50505090565b600860039054906101000a900460ff1681565b6000600180600860009054906101000a900460ff1614151561042357610002565b61042b6119d0565b600001519150610436565b5b5090565b6000600380600860009054906101000a900460ff1614151561045c57610002565b600e60009054906101000a900473ffffffffffffffffffffffffffffffffffffffff169150610486565b5b5090565b60006000600280600860009054906101000a900460ff161415156104ae57610002565b600760005060003373ffffffffffffffffffffffffffffffffffffffff1681526020019081526020016000206000505492503373ffffffffffffffffffffffffffffffffffffffff16600660005084815481101561000257906000526020600020906003020160005b5060000160009054906101000a900473ffffffffffffffffffffffffffffffffffffffff1673ffffffffffffffffffffffffffffffffffffffff1614151561055e57610002565b600660005083815481101561000257906000526020600020906003020160005b5060000160149054906101000a900460ff1615156106e3576001600660005084815481101561000257906000526020600020906003020160005b5060000160146101000a81548160ff02191690837f0100000000000000000000000000000000000000000000000000000000000000908102040217905550600660005083815481101561000257906000526020600020906003020160005b5060000160009054906101000a900473ffffffffffffffffffffffffffffffffffffffff1673ffffffffffffffffffffffffffffffffffffffff166108fc6002600050549081150290604051809050600060405180830381858888f1935050505015156106e2576000600660005084815481101561000257906000526020600020906003020160005b5060000160146101000a81548160ff02191690837f0100000000000000000000000000000000000000000000000000000000000000908102040217905550610002565b5b6106eb610351565b91508115610723577f337e31503e529f6d3e5f64e0db55cdbf3e626ca19e0d34f0c460b52a2c4e85d860405180905060405180910390a15b5b5b505050565b600860019054906101000a900460ff1681565b60096000505481565b600860029054906101000a900460ff1681565b60016000505481565b60006000600080600860009054906101000a900460ff1614151561078557610002565b6002600050543414151561079857610002565b60016000505484511415156107ac57610002565b600d6000505460006000505403925082600760005060003373ffffffffffffffffffffffffffffffffffffffff168152602001908152602001600020600050819055507ffc06fec3ac3e308d0755a514c09a02d7d8b81699aaa2562d7d59909d498a135f338486604051808473ffffffffffffffffffffffffffffffffffffffff168152602001838152602001806020018281038252838181518152602001915080519060200190602002808383829060006004602084601f0104600302600f01f15090500194505050505060405180910390a16000600284811561000257061415610b2b57600b60005080548060010182818154818355818115116109955760060281600602836000526020600020918201910161099491906108cb565b808211156109905760006000820160006101000a81549073ffffffffffffffffffffffffffffffffffffffff02191690556001820160006101000a81549073ffffffffffffffffffffffffffffffffffffffff02191690556002820160006101000a81549073ffffffffffffffffffffffffffffffffffffffff0219169055600382016000506000905560048201600050600090556005820160006101000a81549073ffffffffffffffffffffffffffffffffffffffff0219169055506006016108cb565b5090565b5b5050509190906000526020600020906006020160005b60c0604051908101604052806000815260200133815260200160008152602001886000815181101561000257906020019060200201518152602001600060010281526020016000815260200150909190915060008201518160000160006101000a81548173ffffffffffffffffffffffffffffffffffffffff02191690836c0100000000000000000000000090810204021790555060208201518160010160006101000a81548173ffffffffffffffffffffffffffffffffffffffff02191690836c0100000000000000000000000090810204021790555060408201518160020160006101000a81548173ffffffffffffffffffffffffffffffffffffffff02191690836c01000000000000000000000000908102040217905550606082015181600301600050556080820151816004016000505560a08201518160050160006101000a81548173ffffffffffffffffffffffffffffffffffffffff02191690836c01000000000000000000000000908102040217905550505050610cdc565b600b6000506001600b6000508054905003815481101561000257906000526020600020906006020160005b509150338260020160006101000a81548173ffffffffffffffffffffffffffffffffffffffff02191690836c010000000000000000000000009081020402179055508360008151811015610002579060200190602002015182600401600050819055508160010160009054906101000a900473ffffffffffffffffffffffffffffffffffffffff168260020160009054906101000a900473ffffffffffffffffffffffffffffffffffffffff1683600301600050548460040160005054600460005054600560005054604051610df680611caf833901808773ffffffffffffffffffffffffffffffffffffffff1681526020018673ffffffffffffffffffffffffffffffffffffffff16815260200185600019168152602001846000191681526020018381526020018281526020019650505050505050604051809103906000f08015610002578260000160006101000a81548173ffffffffffffffffffffffffffffffffffffffff02191690836c010000000000000000000000009081020402179055505b60066000508054806001018281815481835581811511610db757600302816003028360005260206000209182019101610db69190610d15565b80821115610db25760006000820160006101000a81549073ffffffffffffffffffffffffffffffffffffffff02191690556000820160146101000a81549060ff02191690556001820160005080546000825590600052602060002090810190610d9c9190610d7e565b80821115610d985760008181506000905550600101610d7e565b5090565b5b50600282016000506000905550600301610d15565b5090565b5b5050509190906000526020600020906003020160005b608060405190810160405280338152602001600081526020018881526020016001600b6000508054905003815260200150909190915060008201518160000160006101000a81548173ffffffffffffffffffffffffffffffffffffffff02191690836c0100000000000000000000000090810204021790555060208201518160000160146101000a81548160ff02191690837f01000000000000000000000000000000000000000000000000000000000000009081020402179055506040820151816001016000509080519060200190828054828255906000526020600020908101928215610edc579160200282015b82811115610edb578251826000505591602001919060010190610ebd565b5b509050610f079190610ee9565b80821115610f035760008181506000905550600101610ee9565b5090565b505060608201518160020160005055505050600d600081815054809291906001900391905055506000600d600050541415610faa576001600860006101000a81548160ff02191690837f01000000000000000000000000000000000000000000000000000000000000009081020402179055507f5f6f56bfd606baf72d3dce824026aa03d75457c2925c1ff934035a30eb982e9a60405180905060405180910390a15b5b5b5b50505050565b600860009054906101000a900460ff1681565b60006000505481565b60026000505481565b600a6000505442600360005054808383031015610ff457610002565b600080600860009054906101000a900460ff1614151561101357610002565b6002600860006101000a81548160ff02191690837f01000000000000000000000000000000000000000000000000000000000000009081020402179055507fd86b2ddf980828c21dffd93ed4b1bc7007ecb16a62f0e3cf5163741862496b7260405180905060405180910390a15b5b505b505050565b60c06040519081016040528060008152602001600081526020016000815260200160008152602001600081526020016000815260200150600060006000600180600860009054906101000a900460ff161415156110e557610002565b6110ed6119d0565b9450846000015173ffffffffffffffffffffffffffffffffffffffff1663dfbf53ae600060405160200152604051817c0100000000000000000000000000000000000000000000000000000000028152600401809050602060405180830381600087803b156100025760325a03f115610002575050506040518051906020015093508373ffffffffffffffffffffffffffffffffffffffff163373ffffffffffffffffffffffffffffffffffffffff161415156111a957610002565b60008560a0015173ffffffffffffffffffffffffffffffffffffffff161415156111d257610002565b838560a0019073ffffffffffffffffffffffffffffffffffffffff169081815260200150507f34e0b41c186828ad943e04ad46dfead049f729d7c69ba0f86d96dde2756c2c4e600960005054611226611b8b565b600760005060003373ffffffffffffffffffffffffffffffffffffffff1681526020019081526020016000206000505460405180848152602001838152602001828152602001935050505060405180910390a16001600050546001600960005054011415156117ee576112a0600160096000505401611c15565b925060006002600c6000505481156100025706141561153d57600b60005080548060010182818154818355818115116113bc576006028160060283600052602060002091820191016113bb91906112f2565b808211156113b75760006000820160006101000a81549073ffffffffffffffffffffffffffffffffffffffff02191690556001820160006101000a81549073ffffffffffffffffffffffffffffffffffffffff02191690556002820160006101000a81549073ffffffffffffffffffffffffffffffffffffffff0219169055600382016000506000905560048201600050600090556005820160006101000a81549073ffffffffffffffffffffffffffffffffffffffff0219169055506006016112f2565b5090565b5b5050509190906000526020600020906006020160005b60c0604051908101604052806000815260200133815260200160008152602001878152602001600060010281526020016000815260200150909190915060008201518160000160006101000a81548173ffffffffffffffffffffffffffffffffffffffff02191690836c0100000000000000000000000090810204021790555060208201518160010160006101000a81548173ffffffffffffffffffffffffffffffffffffffff02191690836c0100000000000000000000000090810204021790555060408201518160020160006101000a81548173ffffffffffffffffffffffffffffffffffffffff02191690836c01000000000000000000000000908102040217905550606082015181600301600050556080820151816004016000505560a08201518160050160006101000a81548173ffffffffffffffffffffffffffffffffffffffff02191690836c010000000000000000000000009081020402179055505050506117ed565b600b6000506001600b6000508054905003815481101561000257906000526020600020906006020160005b509150338260020160006101000a81548173ffffffffffffffffffffffffffffffffffffffff02191690836c010000000000000000000000009081020402179055508282600401600050819055508160010160009054906101000a900473ffffffffffffffffffffffffffffffffffffffff168260020160009054906101000a900473ffffffffffffffffffffffffffffffffffffffff1683600301600050548460040160005054600460005054600560005054604051610df680612aa5833901808773ffffffffffffffffffffffffffffffffffffffff1681526020018673ffffffffffffffffffffffffffffffffffffffff16815260200185600019168152602001846000191681526020018381526020018281526020019650505050505050604051809103906000f08015610002578260000160006101000a81548173ffffffffffffffffffffffffffffffffffffffff02191690836c010000000000000000000000009081020402179055506001600b60005080549050036006600050600760005060008560010160009054906101000a900473ffffffffffffffffffffffffffffffffffffffff1673ffffffffffffffffffffffffffffffffffffffff16815260200190815260200160002060005054815481101561000257906000526020600020906003020160005b50600201600050819055506001600b60005080549050036006600050600760005060008560020160009054906101000a900473ffffffffffffffffffffffffffffffffffffffff1673ffffffffffffffffffffffffffffffffffffffff16815260200190815260200160002060005054815481101561000257906000526020600020906003020160005b50600201600050819055505b5b600c600081815054809291906001900391905055506000600c6000505414156119c7576009600081815054809291906001019190505550600160005054600960005054141561196d576003600860006101000a81548160ff02191690837f010000000000000000000000000000000000000000000000000000000000000090810204021790555083600e60006101000a81548173ffffffffffffffffffffffffffffffffffffffff02191690836c010000000000000000000000009081020402179055507fa00b164cf34f8c3d305f8a40608b8f419c304047c0197a223373a24c29f5ec92600760005060003373ffffffffffffffffffffffffffffffffffffffff168152602001908152602001600020600050546040518082815260200191505060405180910390a13373ffffffffffffffffffffffffffffffffffffffff166108fc3073ffffffffffffffffffffffffffffffffffffffff16319081150290604051809050600060405180830381858888f19350505050506119c6565b611975611c93565b600d600050819055506002600d6000505481156100025704600c600050819055507f43ae86af5fed5873f147ff28a8a5f10718f51ae0b3599e809f86a5cb8c0eed6b60405180905060405180910390a15b5b5b5b5050505050565b60c06040519081016040528060008152602001600081526020016000815260200160008152602001600081526020016000815260200150600180600860009054906101000a900460ff16141515611a2657610002565b600b600050611a33611b8b565b815481101561000257906000526020600020906006020160005b5060c060405190810160405290816000820160009054906101000a900473ffffffffffffffffffffffffffffffffffffffff1673ffffffffffffffffffffffffffffffffffffffff1681526020016001820160009054906101000a900473ffffffffffffffffffffffffffffffffffffffff1673ffffffffffffffffffffffffffffffffffffffff1681526020016002820160009054906101000a900473ffffffffffffffffffffffffffffffffffffffff1673ffffffffffffffffffffffffffffffffffffffff168152602001600382016000505460001916815260200160048201600050546000191681526020016005820160009054906101000a900473ffffffffffffffffffffffffffffffffffffffff1673ffffffffffffffffffffffffffffffffffffffff16815260200150509150611b86565b5b5090565b60006000600180600860009054906101000a900460ff16141515611bae57610002565b600760005060003373ffffffffffffffffffffffffffffffffffffffff168152602001908152602001600020600050549150600660005082815481101561000257906000526020600020906003020160005b50600201600050549250611c0f565b5b505090565b60006006600050600760005060003373ffffffffffffffffffffffffffffffffffffffff16815260200190815260200160002060005054815481101561000257906000526020600020906003020160005b5060010160005082815481101561000257906000526020600020900160005b50549050611c8e565b919050565b60006009600050546001600050540360020a9050611cac565b905660606040526000600060006101000a81548160ff02191690837f01000000000000000000000000000000000000000000000000000000000000009081020402179055506000600060016101000a81548160ff02191690837f01000000000000000000000000000000000000000000000000000000000000009081020402179055506001600060026101000a81548160ff02191690837f01000000000000000000000000000000000000000000000000000000000000009081020402179055506002600060036101000a81548160ff02191690837f010000000000000000000000000000000000000000000000000000000000000090810204021790555060405160c080610df6833981016040528080519060200190919080519060200190919080519060200190919080519060200190919080519060200190919080519060200190919050505b85600060046101000a81548173ffffffffffffffffffffffffffffffffffffffff02191690836c0100000000000000000000000090810204021790555084600160006101000a81548173ffffffffffffffffffffffffffffffffffffffff02191690836c0100000000000000000000000090810204021790555083600260005081905550826003600050819055508160086000508190555080600960005081905550426006600050819055505b505050505050610bef806102076000396000f3606060405236156100d7576000357c0100000000000000000000000000000000000000000000000000000000900480630c55699c146100dc5780631659aecc1461011a57806331c420211461014457806361cd90b01461016c578063692a439d1461019257806370dea79a146101ba5780639da6df2a146101e4578063a56dfe4a1461020c578063c19d93fb1461024a578063cadb303114610272578063dcf9743914610286578063df037443146102ac578063dfbf53ae146102c0578063ed7a4e0b146102fe578063f02a306e1461033c576100d7565b610002565b34610002576100ee6004805050610366565b604051808273ffffffffffffffffffffffffffffffffffffffff16815260200191505060405180910390f35b346100025761012c600480505061038c565b60405180821515815260200191505060405180910390f35b346100025761015660048050506103c3565b6040518082815260200191505060405180910390f35b346100025761019060048080359060200190919080359060200190919050506103d6565b005b34610002576101a460048050506104dc565b6040518082815260200191505060405180910390f35b34610002576101cc60048050506104ef565b60405180821515815260200191505060405180910390f35b34610002576101f66004805050610502565b6040518082815260200191505060405180910390f35b346100025761021e6004805050610515565b604051808273ffffffffffffffffffffffffffffffffffffffff16815260200191505060405180910390f35b346100025761025c600480505061053b565b6040518082815260200191505060405180910390f35b3461000257610284600480505061054e565b005b34610002576102aa60048080359060200190919080359060200190919050506106e7565b005b34610002576102be600480505061082d565b005b34610002576102d260048050506109c6565b604051808273ffffffffffffffffffffffffffffffffffffffff16815260200191505060405180910390f35b346100025761031060048050506109f5565b604051808273ffffffffffffffffffffffffffffffffffffffff16815260200191505060405180910390f35b346100025761034e6004805050610a1b565b60405180821515815260200191505060405180910390f35b600060049054906101000a900473ffffffffffffffffffffffffffffffffffffffff1681565b60006001600060009054906101000a900460ff161480156103b95750600960005054600760005054420310155b90506103c0565b90565b600060029054906101000a900460ff1681565b600160009054906101000a900473ffffffffffffffffffffffffffffffffffffffff168073ffffffffffffffffffffffffffffffffffffffff163373ffffffffffffffffffffffffffffffffffffffff1614151561043357610002565b600180600060009054906101000a900460ff1614151561045257610002565b600360005054600019168484604051808381526020018281526020019250505060405180910390206000191614151561048a57610002565b836005600050819055507f6c51a76788b16b6d0714950644a579f41703621bf7d7d3e76f247c74e4d56533846040518082815260200191505060405180910390a16104d3610a52565b5b5b505b505050565b600060019054906101000a900460ff1681565b600a60149054906101000a900460ff1681565b600060039054906101000a900460ff1681565b600160009054906101000a900473ffffffffffffffffffffffffffffffffffffffff1681565b600060009054906101000a900460ff1681565b6007600050544260096000505480838303101561056a57610002565b600180600060009054906101000a900460ff1614151561058957610002565b600060049054906101000a900473ffffffffffffffffffffffffffffffffffffffff16600a60006101000a81548173ffffffffffffffffffffffffffffffffffffffff02191690836c010000000000000000000000009081020402179055506001600a60146101000a81548160ff02191690837f01000000000000000000000000000000000000000000000000000000000000009081020402179055506002600060006101000a81548160ff02191690837f01000000000000000000000000000000000000000000000000000000000000009081020402179055507f84f3f1a8b4c07743b909ec2d640f9050d64dcf347eb7b8da21fdb03c13d3b134600a60009054906101000a900473ffffffffffffffffffffffffffffffffffffffff166001604051808373ffffffffffffffffffffffffffffffffffffffff16815260200182151581526020019250505060405180910390a15b5b505b505050565b600060049054906101000a900473ffffffffffffffffffffffffffffffffffffffff168073ffffffffffffffffffffffffffffffffffffffff163373ffffffffffffffffffffffffffffffffffffffff1614151561074457610002565b600080600060009054906101000a900460ff1614151561076357610002565b600260005054600019168484604051808381526020018281526020019250505060405180910390206000191614151561079b57610002565b836004600050819055506001600060006101000a81548160ff02191690837f0100000000000000000000000000000000000000000000000000000000000000908102040217905550426007600050819055507fa986bc426b4e0044ec1a3e92bfadec84f6be4e4736d533d0b2f53a797bf9f071846040518082815260200191505060405180910390a15b5b505b505050565b6006600050544260086000505480838303101561084957610002565b600080600060009054906101000a900460ff1614151561086857610002565b600160009054906101000a900473ffffffffffffffffffffffffffffffffffffffff16600a60006101000a81548173ffffffffffffffffffffffffffffffffffffffff02191690836c010000000000000000000000009081020402179055506001600a60146101000a81548160ff02191690837f01000000000000000000000000000000000000000000000000000000000000009081020402179055506002600060006101000a81548160ff02191690837f01000000000000000000000000000000000000000000000000000000000000009081020402179055507f84f3f1a8b4c07743b909ec2d640f9050d64dcf347eb7b8da21fdb03c13d3b134600a60009054906101000a900473ffffffffffffffffffffffffffffffffffffffff166001604051808373ffffffffffffffffffffffffffffffffffffffff16815260200182151581526020019250505060405180910390a15b5b505b505050565b6000600a60009054906101000a900473ffffffffffffffffffffffffffffffffffffffff1690506109f2565b90565b600a60009054906101000a900473ffffffffffffffffffffffffffffffffffffffff1681565b60006000600060009054906101000a900460ff16148015610a485750600860005054600660005054420310155b9050610a4f565b90565b6000600260056000505481156100025706600460005054011415610ad457600060049054906101000a900473ffffffffffffffffffffffffffffffffffffffff16600a60006101000a81548173ffffffffffffffffffffffffffffffffffffffff02191690836c01000000000000000000000000908102040217905550610b34565b600160009054906101000a900473ffffffffffffffffffffffffffffffffffffffff16600a60006101000a81548173ffffffffffffffffffffffffffffffffffffffff02191690836c010000000000000000000000009081020402179055505b6002600060006101000a81548160ff02191690837f01000000000000000000000000000000000000000000000000000000000000009081020402179055507f84f3f1a8b4c07743b909ec2d640f9050d64dcf347eb7b8da21fdb03c13d3b134600a60009054906101000a900473ffffffffffffffffffffffffffffffffffffffff166000604051808373ffffffffffffffffffffffffffffffffffffffff16815260200182151581526020019250505060405180910390a15b5660606040526000600060006101000a81548160ff02191690837f01000000000000000000000000000000000000000000000000000000000000009081020402179055506000600060016101000a81548160ff02191690837f01000000000000000000000000000000000000000000000000000000000000009081020402179055506001600060026101000a81548160ff02191690837f01000000000000000000000000000000000000000000000000000000000000009081020402179055506002600060036101000a81548160ff02191690837f010000000000000000000000000000000000000000000000000000000000000090810204021790555060405160c080610df6833981016040528080519060200190919080519060200190919080519060200190919080519060200190919080519060200190919080519060200190919050505b85600060046101000a81548173ffffffffffffffffffffffffffffffffffffffff02191690836c0100000000000000000000000090810204021790555084600160006101000a81548173ffffffffffffffffffffffffffffffffffffffff02191690836c0100000000000000000000000090810204021790555083600260005081905550826003600050819055508160086000508190555080600960005081905550426006600050819055505b505050505050610bef806102076000396000f3606060405236156100d7576000357c0100000000000000000000000000000000000000000000000000000000900480630c55699c146100dc5780631659aecc1461011a57806331c420211461014457806361cd90b01461016c578063692a439d1461019257806370dea79a146101ba5780639da6df2a146101e4578063a56dfe4a1461020c578063c19d93fb1461024a578063cadb303114610272578063dcf9743914610286578063df037443146102ac578063dfbf53ae146102c0578063ed7a4e0b146102fe578063f02a306e1461033c576100d7565b610002565b34610002576100ee6004805050610366565b604051808273ffffffffffffffffffffffffffffffffffffffff16815260200191505060405180910390f35b346100025761012c600480505061038c565b60405180821515815260200191505060405180910390f35b346100025761015660048050506103c3565b6040518082815260200191505060405180910390f35b346100025761019060048080359060200190919080359060200190919050506103d6565b005b34610002576101a460048050506104dc565b6040518082815260200191505060405180910390f35b34610002576101cc60048050506104ef565b60405180821515815260200191505060405180910390f35b34610002576101f66004805050610502565b6040518082815260200191505060405180910390f35b346100025761021e6004805050610515565b604051808273ffffffffffffffffffffffffffffffffffffffff16815260200191505060405180910390f35b346100025761025c600480505061053b565b6040518082815260200191505060405180910390f35b3461000257610284600480505061054e565b005b34610002576102aa60048080359060200190919080359060200190919050506106e7565b005b34610002576102be600480505061082d565b005b34610002576102d260048050506109c6565b604051808273ffffffffffffffffffffffffffffffffffffffff16815260200191505060405180910390f35b346100025761031060048050506109f5565b604051808273ffffffffffffffffffffffffffffffffffffffff16815260200191505060405180910390f35b346100025761034e6004805050610a1b565b60405180821515815260200191505060405180910390f35b600060049054906101000a900473ffffffffffffffffffffffffffffffffffffffff1681565b60006001600060009054906101000a900460ff161480156103b95750600960005054600760005054420310155b90506103c0565b90565b600060029054906101000a900460ff1681565b600160009054906101000a900473ffffffffffffffffffffffffffffffffffffffff168073ffffffffffffffffffffffffffffffffffffffff163373ffffffffffffffffffffffffffffffffffffffff1614151561043357610002565b600180600060009054906101000a900460ff1614151561045257610002565b600360005054600019168484604051808381526020018281526020019250505060405180910390206000191614151561048a57610002565b836005600050819055507f6c51a76788b16b6d0714950644a579f41703621bf7d7d3e76f247c74e4d56533846040518082815260200191505060405180910390a16104d3610a52565b5b5b505b505050565b600060019054906101000a900460ff1681565b600a60149054906101000a900460ff1681565b600060039054906101000a900460ff1681565b600160009054906101000a900473ffffffffffffffffffffffffffffffffffffffff1681565b600060009054906101000a900460ff1681565b6007600050544260096000505480838303101561056a57610002565b600180600060009054906101000a900460ff1614151561058957610002565b600060049054906101000a900473ffffffffffffffffffffffffffffffffffffffff16600a60006101000a81548173ffffffffffffffffffffffffffffffffffffffff02191690836c010000000000000000000000009081020402179055506001600a60146101000a81548160ff02191690837f01000000000000000000000000000000000000000000000000000000000000009081020402179055506002600060006101000a81548160ff02191690837f01000000000000000000000000000000000000000000000000000000000000009081020402179055507f84f3f1a8b4c07743b909ec2d640f9050d64dcf347eb7b8da21fdb03c13d3b134600a60009054906101000a900473ffffffffffffffffffffffffffffffffffffffff166001604051808373ffffffffffffffffffffffffffffffffffffffff16815260200182151581526020019250505060405180910390a15b5b505b505050565b600060049054906101000a900473ffffffffffffffffffffffffffffffffffffffff168073ffffffffffffffffffffffffffffffffffffffff163373ffffffffffffffffffffffffffffffffffffffff1614151561074457610002565b600080600060009054906101000a900460ff1614151561076357610002565b600260005054600019168484604051808381526020018281526020019250505060405180910390206000191614151561079b57610002565b836004600050819055506001600060006101000a81548160ff02191690837f0100000000000000000000000000000000000000000000000000000000000000908102040217905550426007600050819055507fa986bc426b4e0044ec1a3e92bfadec84f6be4e4736d533d0b2f53a797bf9f071846040518082815260200191505060405180910390a15b5b505b505050565b6006600050544260086000505480838303101561084957610002565b600080600060009054906101000a900460ff1614151561086857610002565b600160009054906101000a900473ffffffffffffffffffffffffffffffffffffffff16600a60006101000a81548173ffffffffffffffffffffffffffffffffffffffff02191690836c010000000000000000000000009081020402179055506001600a60146101000a81548160ff02191690837f01000000000000000000000000000000000000000000000000000000000000009081020402179055506002600060006101000a81548160ff02191690837f01000000000000000000000000000000000000000000000000000000000000009081020402179055507f84f3f1a8b4c07743b909ec2d640f9050d64dcf347eb7b8da21fdb03c13d3b134600a60009054906101000a900473ffffffffffffffffffffffffffffffffffffffff166001604051808373ffffffffffffffffffffffffffffffffffffffff16815260200182151581526020019250505060405180910390a15b5b505b505050565b6000600a60009054906101000a900473ffffffffffffffffffffffffffffffffffffffff1690506109f2565b90565b600a60009054906101000a900473ffffffffffffffffffffffffffffffffffffffff1681565b60006000600060009054906101000a900460ff16148015610a485750600860005054600660005054420310155b9050610a4f565b90565b6000600260056000505481156100025706600460005054011415610ad457600060049054906101000a900473ffffffffffffffffffffffffffffffffffffffff16600a60006101000a81548173ffffffffffffffffffffffffffffffffffffffff02191690836c01000000000000000000000000908102040217905550610b34565b600160009054906101000a900473ffffffffffffffffffffffffffffffffffffffff16600a60006101000a81548173ffffffffffffffffffffffffffffffffffffffff02191690836c010000000000000000000000009081020402179055505b6002600060006101000a81548160ff02191690837f01000000000000000000000000000000000000000000000000000000000000009081020402179055507f84f3f1a8b4c07743b909ec2d640f9050d64dcf347eb7b8da21fdb03c13d3b134600a60009054906101000a900473ffffffffffffffffffffffffffffffffffffffff166000604051808373ffffffffffffffffffffffffffffffffffffffff16815260200182151581526020019250505060405180910390a15b56",
  "compiler": {
    "name": "solc",
    "version": "0.4.4+commit.4633f3de.Emscripten.clang"
  },
  "schemaVersion": "3.4.16",
  "updatedAt": "2024-11-05T17:38:32.155Z"
}