{
  "contractName": "Match",
  "abi": [
    {
      "constant": true,
      "inputs": [],
      "name": "x",
      "outputs": [
        {
          "name": "",
          "type": "address"
        }
      ],
      "payable": false,
      "type": "function"
    },
    {
      "constant": true,
      "inputs": [],
      "name": "timeoutYEnabled",
      "outputs": [
        {
          "name": "",
          "type": "bool"
        }
      ],
      "payable": false,
      "type": "function"
    },
    {
      "constant": true,
      "inputs": [],
      "name": "STATE_Y_REVEAL",
      "outputs": [
        {
          "name": "",
          "type": "uint8"
        }
      ],
      "payable": false,
      "type": "function"
    },
    {
      "constant": false,
      "inputs": [
        {
          "name": "number",
          "type": "uint256"
        },
        {
          "name": "salt",
          "type": "uint256"
        }
      ],
      "name": "revealY",
      "outputs": [],
      "payable": false,
      "type": "function"
    },
    {
      "constant": true,
      "inputs": [],
      "name": "STATE_X_REVEAL",
      "outputs": [
        {
          "name": "",
          "type": "uint8"
        }
      ],
      "payable": false,
      "type": "function"
    },
    {
      "constant": true,
      "inputs": [],
      "name": "timeout",
      "outputs": [
        {
          "name": "",
          "type": "bool"
        }
      ],
      "payable": false,
      "type": "function"
    },
    {
      "constant": true,
      "inputs": [],
      "name": "STATE_WINNER",
      "outputs": [
        {
          "name": "",
          "type": "uint8"
        }
      ],
      "payable": false,
      "type": "function"
    },
    {
      "constant": true,
      "inputs": [],
      "name": "y",
      "outputs": [
        {
          "name": "",
          "type": "address"
        }
      ],
      "payable": false,
      "type": "function"
    },
    {
      "constant": true,
      "inputs": [],
      "name": "state",
      "outputs": [
        {
          "name": "",
          "type": "uint8"
        }
      ],
      "payable": false,
      "type": "function"
    },
    {
      "constant": false,
      "inputs": [],
      "name": "timeoutY",
      "outputs": [],
      "payable": false,
      "type": "function"
    },
    {
      "constant": false,
      "inputs": [
        {
          "name": "number",
          "type": "uint256"
        },
        {
          "name": "salt",
          "type": "uint256"
        }
      ],
      "name": "revealX",
      "outputs": [],
      "payable": false,
      "type": "function"
    },
    {
      "constant": false,
      "inputs": [],
      "name": "timeoutX",
      "outputs": [],
      "payable": false,
      "type": "function"
    },
    {
      "constant": true,
      "inputs": [],
      "name": "winner",
      "outputs": [
        {
          "name": "",
          "type": "address"
        }
      ],
      "payable": false,
      "type": "function"
    },
    {
      "constant": true,
      "inputs": [],
      "name": "winnerAddress",
      "outputs": [
        {
          "name": "",
          "type": "address"
        }
      ],
      "payable": false,
      "type": "function"
    },
    {
      "constant": true,
      "inputs": [],
      "name": "timeoutXEnabled",
      "outputs": [
        {
          "name": "",
          "type": "bool"
        }
      ],
      "payable": false,
      "type": "function"
    },
    {
      "inputs": [
        {
          "name": "_x",
          "type": "address"
        },
        {
          "name": "_y",
          "type": "address"
        },
        {
          "name": "_s_x",
          "type": "bytes32"
        },
        {
          "name": "_s_y",
          "type": "bytes32"
        },
        {
          "name": "_timeout_x",
          "type": "uint256"
        },
        {
          "name": "_timeout_y",
          "type": "uint256"
        }
      ],
      "type": "constructor"
    },
    {
      "anonymous": false,
      "inputs": [
        {
          "indexed": false,
          "name": "number",
          "type": "uint256"
        }
      ],
      "name": "XRevealedEvent",
      "type": "event"
    },
    {
      "anonymous": false,
      "inputs": [
        {
          "indexed": false,
          "name": "number",
          "type": "uint256"
        }
      ],
      "name": "YRevealedEvent",
      "type": "event"
    },
    {
      "anonymous": false,
      "inputs": [
        {
          "indexed": false,
          "name": "winner",
          "type": "address"
        },
        {
          "indexed": false,
          "name": "timeout",
          "type": "bool"
        }
      ],
      "name": "WinnerEvent",
      "type": "event"
    }
  ],
  "bytecode": "0x60606040526000600060006101000a81548160ff02191690837f01000000000000000000000000000000000000000000000000000000000000009081020402179055506000600060016101000a81548160ff02191690837f01000000000000000000000000000000000000000000000000000000000000009081020402179055506001600060026101000a81548160ff02191690837f01000000000000000000000000000000000000000000000000000000000000009081020402179055506002600060036101000a81548160ff02191690837f010000000000000000000000000000000000000000000000000000000000000090810204021790555060405160c080610df6833981016040528080519060200190919080519060200190919080519060200190919080519060200190919080519060200190919080519060200190919050505b85600060046101000a81548173ffffffffffffffffffffffffffffffffffffffff02191690836c0100000000000000000000000090810204021790555084600160006101000a81548173ffffffffffffffffffffffffffffffffffffffff02191690836c0100000000000000000000000090810204021790555083600260005081905550826003600050819055508160086000508190555080600960005081905550426006600050819055505b505050505050610bef806102076000396000f3606060405236156100d7576000357c0100000000000000000000000000000000000000000000000000000000900480630c55699c146100dc5780631659aecc1461011a57806331c420211461014457806361cd90b01461016c578063692a439d1461019257806370dea79a146101ba5780639da6df2a146101e4578063a56dfe4a1461020c578063c19d93fb1461024a578063cadb303114610272578063dcf9743914610286578063df037443146102ac578063dfbf53ae146102c0578063ed7a4e0b146102fe578063f02a306e1461033c576100d7565b610002565b34610002576100ee6004805050610366565b604051808273ffffffffffffffffffffffffffffffffffffffff16815260200191505060405180910390f35b346100025761012c600480505061038c565b60405180821515815260200191505060405180910390f35b346100025761015660048050506103c3565b6040518082815260200191505060405180910390f35b346100025761019060048080359060200190919080359060200190919050506103d6565b005b34610002576101a460048050506104dc565b6040518082815260200191505060405180910390f35b34610002576101cc60048050506104ef565b60405180821515815260200191505060405180910390f35b34610002576101f66004805050610502565b6040518082815260200191505060405180910390f35b346100025761021e6004805050610515565b604051808273ffffffffffffffffffffffffffffffffffffffff16815260200191505060405180910390f35b346100025761025c600480505061053b565b6040518082815260200191505060405180910390f35b3461000257610284600480505061054e565b005b34610002576102aa60048080359060200190919080359060200190919050506106e7565b005b34610002576102be600480505061082d565b005b34610002576102d260048050506109c6565b604051808273ffffffffffffffffffffffffffffffffffffffff16815260200191505060405180910390f35b346100025761031060048050506109f5565b604051808273ffffffffffffffffffffffffffffffffffffffff16815260200191505060405180910390f35b346100025761034e6004805050610a1b565b60405180821515815260200191505060405180910390f35b600060049054906101000a900473ffffffffffffffffffffffffffffffffffffffff1681565b60006001600060009054906101000a900460ff161480156103b95750600960005054600760005054420310155b90506103c0565b90565b600060029054906101000a900460ff1681565b600160009054906101000a900473ffffffffffffffffffffffffffffffffffffffff168073ffffffffffffffffffffffffffffffffffffffff163373ffffffffffffffffffffffffffffffffffffffff1614151561043357610002565b600180600060009054906101000a900460ff1614151561045257610002565b600360005054600019168484604051808381526020018281526020019250505060405180910390206000191614151561048a57610002565b836005600050819055507f6c51a76788b16b6d0714950644a579f41703621bf7d7d3e76f247c74e4d56533846040518082815260200191505060405180910390a16104d3610a52565b5b5b505b505050565b600060019054906101000a900460ff1681565b600a60149054906101000a900460ff1681565b600060039054906101000a900460ff1681565b600160009054906101000a900473ffffffffffffffffffffffffffffffffffffffff1681565b600060009054906101000a900460ff1681565b6007600050544260096000505480838303101561056a57610002565b600180600060009054906101000a900460ff1614151561058957610002565b600060049054906101000a900473ffffffffffffffffffffffffffffffffffffffff16600a60006101000a81548173ffffffffffffffffffffffffffffffffffffffff02191690836c010000000000000000000000009081020402179055506001600a60146101000a81548160ff02191690837f01000000000000000000000000000000000000000000000000000000000000009081020402179055506002600060006101000a81548160ff02191690837f01000000000000000000000000000000000000000000000000000000000000009081020402179055507f84f3f1a8b4c07743b909ec2d640f9050d64dcf347eb7b8da21fdb03c13d3b134600a60009054906101000a900473ffffffffffffffffffffffffffffffffffffffff166001604051808373ffffffffffffffffffffffffffffffffffffffff16815260200182151581526020019250505060405180910390a15b5b505b505050565b600060049054906101000a900473ffffffffffffffffffffffffffffffffffffffff168073ffffffffffffffffffffffffffffffffffffffff163373ffffffffffffffffffffffffffffffffffffffff1614151561074457610002565b600080600060009054906101000a900460ff1614151561076357610002565b600260005054600019168484604051808381526020018281526020019250505060405180910390206000191614151561079b57610002565b836004600050819055506001600060006101000a81548160ff02191690837f0100000000000000000000000000000000000000000000000000000000000000908102040217905550426007600050819055507fa986bc426b4e0044ec1a3e92bfadec84f6be4e4736d533d0b2f53a797bf9f071846040518082815260200191505060405180910390a15b5b505b505050565b6006600050544260086000505480838303101561084957610002565b600080600060009054906101000a900460ff1614151561086857610002565b600160009054906101000a900473ffffffffffffffffffffffffffffffffffffffff16600a60006101000a81548173ffffffffffffffffffffffffffffffffffffffff02191690836c010000000000000000000000009081020402179055506001600a60146101000a81548160ff02191690837f01000000000000000000000000000000000000000000000000000000000000009081020402179055506002600060006101000a81548160ff02191690837f01000000000000000000000000000000000000000000000000000000000000009081020402179055507f84f3f1a8b4c07743b909ec2d640f9050d64dcf347eb7b8da21fdb03c13d3b134600a60009054906101000a900473ffffffffffffffffffffffffffffffffffffffff166001604051808373ffffffffffffffffffffffffffffffffffffffff16815260200182151581526020019250505060405180910390a15b5b505b505050565b6000600a60009054906101000a900473ffffffffffffffffffffffffffffffffffffffff1690506109f2565b90565b600a60009054906101000a900473ffffffffffffffffffffffffffffffffffffffff1681565b60006000600060009054906101000a900460ff16148015610a485750600860005054600660005054420310155b9050610a4f565b90565b6000600260056000505481156100025706600460005054011415610ad457600060049054906101000a900473ffffffffffffffffffffffffffffffffffffffff16600a60006101000a81548173ffffffffffffffffffffffffffffffffffffffff02191690836c01000000000000000000000000908102040217905550610b34565b600160009054906101000a900473ffffffffffffffffffffffffffffffffffffffff16600a60006101000a81548173ffffffffffffffffffffffffffffffffffffffff02191690836c010000000000000000000000009081020402179055505b6002600060006101000a81548160ff02191690837f01000000000000000000000000000000000000000000000000000000000000009081020402179055507f84f3f1a8b4c07743b909ec2d640f9050d64dcf347eb7b8da21fdb03c13d3b134600a60009054906101000a900473ffffffffffffffffffffffffffffffffffffffff166000604051808373ffffffffffffffffffffffffffffffffffffffff16815260200182151581526020019250505060405180910390a15b56",
  "compiler": {
    "name": "solc",
    "version": "0.4.4+commit.4633f3de.Emscripten.clang"
  },
  "schemaVersion": "3.4.16",
  "updatedAt": "2024-11-05T17:38:32.157Z"
}